{
  "contractName": "CrudApp",
  "abi": [
    {
      "inputs": [],
      "payable": false,
      "stateMutability": "nonpayable",
      "type": "constructor"
    },
    {
      "anonymous": false,
      "inputs": [
        {
          "indexed": false,
          "internalType": "string",
          "name": "countryName",
          "type": "string"
        }
      ],
      "name": "CountryDelete",
      "type": "event"
    },
    {
      "anonymous": false,
      "inputs": [
        {
          "indexed": false,
          "internalType": "string",
          "name": "countryName",
          "type": "string"
        },
        {
          "indexed": false,
          "internalType": "string",
          "name": "leader",
          "type": "string"
        },
        {
          "indexed": false,
          "internalType": "uint256",
          "name": "population",
          "type": "uint256"
        }
      ],
      "name": "CountryEvent",
      "type": "event"
    },
    {
      "anonymous": false,
      "inputs": [
        {
          "indexed": false,
          "internalType": "string",
          "name": "countryName",
          "type": "string"
        },
        {
          "indexed": false,
          "internalType": "string",
          "name": "leader",
          "type": "string"
        }
      ],
      "name": "LeaderUpdated",
      "type": "event"
    },
    {
      "constant": true,
      "inputs": [
        {
          "internalType": "uint256",
          "name": "",
          "type": "uint256"
        }
      ],
      "name": "countries",
      "outputs": [
        {
          "internalType": "string",
          "name": "name",
          "type": "string"
        },
        {
          "internalType": "string",
          "name": "leader",
          "type": "string"
        },
        {
          "internalType": "uint256",
          "name": "population",
          "type": "uint256"
        }
      ],
      "payable": false,
      "stateMutability": "view",
      "type": "function"
    },
    {
      "constant": true,
      "inputs": [],
      "name": "totalCountries",
      "outputs": [
        {
          "internalType": "uint256",
          "name": "",
          "type": "uint256"
        }
      ],
      "payable": false,
      "stateMutability": "view",
      "type": "function"
    },
    {
      "constant": false,
      "inputs": [
        {
          "internalType": "string",
          "name": "countryName",
          "type": "string"
        },
        {
          "internalType": "string",
          "name": "leader",
          "type": "string"
        },
        {
          "internalType": "uint256",
          "name": "population",
          "type": "uint256"
        }
      ],
      "name": "insert",
      "outputs": [
        {
          "internalType": "uint256",
          "name": "numOfCountries",
          "type": "uint256"
        }
      ],
      "payable": false,
      "stateMutability": "nonpayable",
      "type": "function"
    },
    {
      "constant": false,
      "inputs": [
        {
          "internalType": "string",
          "name": "countryName",
          "type": "string"
        },
        {
          "internalType": "string",
          "name": "newLeader",
          "type": "string"
        }
      ],
      "name": "updateLeader",
      "outputs": [
        {
          "internalType": "bool",
          "name": "success",
          "type": "bool"
        }
      ],
      "payable": false,
      "stateMutability": "nonpayable",
      "type": "function"
    },
    {
      "constant": false,
      "inputs": [
        {
          "internalType": "string",
          "name": "countryName",
          "type": "string"
        }
      ],
      "name": "deleteCountry",
      "outputs": [
        {
          "internalType": "bool",
          "name": "success",
          "type": "bool"
        }
      ],
      "payable": false,
      "stateMutability": "nonpayable",
      "type": "function"
    },
    {
      "constant": true,
      "inputs": [
        {
          "internalType": "string",
          "name": "countryName",
          "type": "string"
        }
      ],
      "name": "getCountry",
      "outputs": [
        {
          "internalType": "string",
          "name": "name",
          "type": "string"
        },
        {
          "internalType": "string",
          "name": "leader",
          "type": "string"
        },
        {
          "internalType": "uint256",
          "name": "population",
          "type": "uint256"
        }
      ],
      "payable": false,
      "stateMutability": "view",
      "type": "function"
    },
    {
      "constant": true,
      "inputs": [],
      "name": "getTotalCountries",
      "outputs": [
        {
          "internalType": "uint256",
          "name": "length",
          "type": "uint256"
        }
      ],
      "payable": false,
      "stateMutability": "view",
      "type": "function"
    }
  ],
  "bytecode": "0x608060405234801561001057600080fd5b5060006001819055506115b3806100286000396000f3fe608060405234801561001057600080fd5b506004361061007d5760003560e01c8063848924cb1161005b578063848924cb14610324578063acf75458146104cb578063c1356d26146104e9578063cae65058146106595761007d565b806308e9daa514610082578063627381291461019c57806381ba02be146101ba575b600080fd5b6100ae6004803603602081101561009857600080fd5b810190808035906020019092919050505061072c565b604051808060200180602001848152602001838103835286818151815260200191508051906020019080838360005b838110156100f85780820151818401526020810190506100dd565b50505050905090810190601f1680156101255780820380516001836020036101000a031916815260200191505b50838103825285818151815260200191508051906020019080838360005b8381101561015e578082015181840152602081019050610143565b50505050905090810190601f16801561018b5780820380516001836020036101000a031916815260200191505b509550505050505060405180910390f35b6101a4610893565b6040518082815260200191505060405180910390f35b61030a600480360360408110156101d057600080fd5b81019080803590602001906401000000008111156101ed57600080fd5b8201836020820111156101ff57600080fd5b8035906020019184600183028401116401000000008311171561022157600080fd5b91908080601f016020809104026020016040519081016040528093929190818152602001838380828437600081840152601f19601f8201169050808301925050505050505091929192908035906020019064010000000081111561028457600080fd5b82018360208201111561029657600080fd5b803590602001918460018302840111640100000000831117156102b857600080fd5b91908080601f016020809104026020016040519081016040528093929190818152602001838380828437600081840152601f19601f820116905080830192505050505050509192919290505050610899565b604051808215151515815260200191505060405180910390f35b6103dd6004803603602081101561033a57600080fd5b810190808035906020019064010000000081111561035757600080fd5b82018360208201111561036957600080fd5b8035906020019184600183028401116401000000008311171561038b57600080fd5b91908080601f016020809104026020016040519081016040528093929190818152602001838380828437600081840152601f19601f820116905080830192505050505050509192919290505050610acf565b604051808060200180602001848152602001838103835286818151815260200191508051906020019080838360005b8381101561042757808201518184015260208101905061040c565b50505050905090810190601f1680156104545780820380516001836020036101000a031916815260200191505b50838103825285818151815260200191508051906020019080838360005b8381101561048d578082015181840152602081019050610472565b50505050905090810190601f1680156104ba5780820380516001836020036101000a031916815260200191505b509550505050505060405180910390f35b6104d3610dcb565b6040518082815260200191505060405180910390f35b610643600480360360608110156104ff57600080fd5b810190808035906020019064010000000081111561051c57600080fd5b82018360208201111561052e57600080fd5b8035906020019184600183028401116401000000008311171561055057600080fd5b91908080601f016020809104026020016040519081016040528093929190818152602001838380828437600081840152601f19601f820116905080830192505050505050509192919290803590602001906401000000008111156105b357600080fd5b8201836020820111156105c557600080fd5b803590602001918460018302840111640100000000831117156105e757600080fd5b91908080601f016020809104026020016040519081016040528093929190818152602001838380828437600081840152601f19601f82011690508083019250505050505050919291929080359060200190929190505050610dd7565b6040518082815260200191505060405180910390f35b6107126004803603602081101561066f57600080fd5b810190808035906020019064010000000081111561068c57600080fd5b82018360208201111561069e57600080fd5b803590602001918460018302840111640100000000831117156106c057600080fd5b91908080601f016020809104026020016040519081016040528093929190818152602001838380828437600081840152601f19601f820116905080830192505050505050509192919290505050610f97565b604051808215151515815260200191505060405180910390f35b6000818154811061073957fe5b9060005260206000209060030201600091509050806000018054600181600116156101000203166002900480601f0160208091040260200160405190810160405280929190818152602001828054600181600116156101000203166002900480156107e55780601f106107ba576101008083540402835291602001916107e5565b820191906000526020600020905b8154815290600101906020018083116107c857829003601f168201915b505050505090806001018054600181600116156101000203166002900480601f0160208091040260200160405190810160405280929190818152602001828054600181600116156101000203166002900480156108835780601f1061085857610100808354040283529160200191610883565b820191906000526020600020905b81548152906001019060200180831161086657829003601f168201915b5050505050908060020154905083565b60015481565b600080600090505b600154811015610ac35761096b600082815481106108bb57fe5b90600052602060002090600302016000018054600181600116156101000203166002900480601f0160208091040260200160405190810160405280929190818152602001828054600181600116156101000203166002900480156109605780601f1061093557610100808354040283529160200191610960565b820191906000526020600020905b81548152906001019060200180831161094357829003601f168201915b50505050508561127a565b15610ab657826000828154811061097e57fe5b906000526020600020906003020160010190805190602001906109a2929190611369565b507fdcbffcd2bd990a26d28efebebb6f9a7a35f2abf2f0e25720c56a457fce2211588484604051808060200180602001838103835285818151815260200191508051906020019080838360005b83811015610a0a5780820151818401526020810190506109ef565b50505050905090810190601f168015610a375780820380516001836020036101000a031916815260200191505b50838103825284818151815260200191508051906020019080838360005b83811015610a70578082015181840152602081019050610a55565b50505050905090810190601f168015610a9d5780820380516001836020036101000a031916815260200191505b5094505050505060405180910390a16001915050610ac9565b80806001019150506108a1565b50600090505b92915050565b606080600080600090505b600154811015610d5557610ba460008281548110610af457fe5b90600052602060002090600302016000018054600181600116156101000203166002900480601f016020809104026020016040519081016040528092919081815260200182805460018160011615610100020316600290048015610b995780601f10610b6e57610100808354040283529160200191610b99565b820191906000526020600020905b815481529060010190602001808311610b7c57829003601f168201915b50505050508661127a565b15610d485760008181548110610bb657fe5b906000526020600020906003020160000160008281548110610bd457fe5b906000526020600020906003020160010160008381548110610bf257fe5b906000526020600020906003020160020154828054600181600116156101000203166002900480601f016020809104026020016040519081016040528092919081815260200182805460018160011615610100020316600290048015610c995780601f10610c6e57610100808354040283529160200191610c99565b820191906000526020600020905b815481529060010190602001808311610c7c57829003601f168201915b50505050509250818054600181600116156101000203166002900480601f016020809104026020016040519081016040528092919081815260200182805460018160011615610100020316600290048015610d355780601f10610d0a57610100808354040283529160200191610d35565b820191906000526020600020905b815481529060010190602001808311610d1857829003601f168201915b5050505050915093509350935050610dc4565b8080600101915050610ada565b506040517f08c379a00000000000000000000000000000000000000000000000000000000081526004018080602001828103825260118152602001807f636f756e747279206e6f7420666f756e6400000000000000000000000000000081525060200191505060405180910390fd5b9193909250565b60008080549050905090565b6000610de16113e9565b6040518060600160405280868152602001858152602001848152509050600081908060018154018082558091505090600182039060005260206000209060030201600090919290919091506000820151816000019080519060200190610e4892919061140a565b506020820151816001019080519060200190610e6592919061140a565b506040820151816002015550505081806001019250507f0468dc69df7bee8f1d38fbb57d4c42ac20476b6d66c4477d41c677b7e2d63893858585604051808060200180602001848152602001838103835286818151815260200191508051906020019080838360005b83811015610ee9578082015181840152602081019050610ece565b50505050905090810190601f168015610f165780820380516001836020036101000a031916815260200191505b50838103825285818151815260200191508051906020019080838360005b83811015610f4f578082015181840152602081019050610f34565b50505050905090810190601f168015610f7c5780820380516001836020036101000a031916815260200191505b509550505050505060405180910390a1819150509392505050565b60008060015411610fa757600080fd5b60008090505b60015481101561126f5761107760008281548110610fc757fe5b90600052602060002090600302016000018054600181600116156101000203166002900480601f01602080910402602001604051908101604052809291908181526020018280546001816001161561010002031660029004801561106c5780601f106110415761010080835404028352916020019161106c565b820191906000526020600020905b81548152906001019060200180831161104f57829003601f168201915b50505050508461127a565b1561126257600060018054038154811061108d57fe5b9060005260206000209060030201600082815481106110a857fe5b9060005260206000209060030201600082018160000190805460018160011615610100020316600290046110dd92919061148a565b506001820181600101908054600181600116156101000203166002900461110592919061148a565b5060028201548160020155905050600060018054038154811061112457fe5b9060005260206000209060030201600080820160006111439190611511565b6001820160006111539190611511565b6002820160009055505060016000815480929190600190039190505550600080548061117b57fe5b6001900381819060005260206000209060030201600080820160006111a09190611511565b6001820160006111b09190611511565b6002820160009055505090557f1aae94a171c3e578099f7103bbb8a169533e0d22f84eb9807747a1c5bebbbc41836040518080602001828103825283818151815260200191508051906020019080838360005b8381101561121e578082015181840152602081019050611203565b50505050905090810190601f16801561124b5780820380516001836020036101000a031916815260200191505b509250505060405180910390a16001915050611275565b8080600101915050610fad565b50600090505b919050565b6000816040516020018082805190602001908083835b602083106112b35780518252602082019150602081019050602083039250611290565b6001836020036101000a03801982511681845116808217855250505050505090500191505060405160208183030381529060405280519060200120836040516020018082805190602001908083835b602083106113255780518252602082019150602081019050602083039250611302565b6001836020036101000a0380198251168184511680821785525050505050509050019150506040516020818303038152906040528051906020012014905092915050565b828054600181600116156101000203166002900490600052602060002090601f016020900481019282601f106113aa57805160ff19168380011785556113d8565b828001600101855582156113d8579182015b828111156113d75782518255916020019190600101906113bc565b5b5090506113e59190611559565b5090565b60405180606001604052806060815260200160608152602001600081525090565b828054600181600116156101000203166002900490600052602060002090601f016020900481019282601f1061144b57805160ff1916838001178555611479565b82800160010185558215611479579182015b8281111561147857825182559160200191906001019061145d565b5b5090506114869190611559565b5090565b828054600181600116156101000203166002900490600052602060002090601f016020900481019282601f106114c35780548555611500565b8280016001018555821561150057600052602060002091601f016020900482015b828111156114ff5782548255916001019190600101906114e4565b5b50905061150d9190611559565b5090565b50805460018160011615610100020316600290046000825580601f106115375750611556565b601f0160209004906000526020600020908101906115559190611559565b5b50565b61157b91905b8082111561157757600081600090555060010161155f565b5090565b9056fea265627a7a72315820ace39304cbcba3dc39baffb5f248be000c57e47b8ada91a41a8db5638266eb6964736f6c63430005100032",
  "source": "pragma solidity >=0.4.23;\n\ncontract CrudApp {\n\n    struct country {\n        string name;\n        string leader;\n        uint256 population;\n    }\n\n    country[] public countries;\n\n    uint256 public totalCountries;\n\n    constructor() public {\n        totalCountries = 0;\n    }\n\n    event CountryEvent(string countryName, string leader, uint256 population);\n    event LeaderUpdated(string countryName, string leader);\n    event CountryDelete(string countryName);\n\n    function insert(string memory countryName, string memory leader, uint256 population) public returns(uint256 numOfCountries) {\n        country memory newCountry = country(countryName, leader, population);\n        countries.push(newCountry);\n        numOfCountries++;\n\n        // Emit event\n        emit CountryEvent(countryName, leader, population);\n        return numOfCountries;\n    }\n\n    function updateLeader(string memory countryName, string memory newLeader) public returns(bool success) {\n        // This has a problem we need loop\n        for (uint256 i = 0; i < totalCountries; i++) {\n            if (compareStrings(countries[i].name, countryName)) {\n                countries[i].leader = newLeader;\n                emit LeaderUpdated(countryName, newLeader);\n                return true;\n            }\n        }\n        return false;\n    }\n\n    function deleteCountry(string memory countryName) public returns(bool success) {\n        require(totalCountries > 0);\n        for (uint256 i = 0; i < totalCountries; i++) {\n            if (compareStrings(countries[i].name, countryName)) {\n                countries[i] = countries[totalCountries - 1]; // pushing last into current arrray index which we gonna delete\n                delete countries[totalCountries - 1]; // now deleteing last index\n                totalCountries--; // total count decrease\n                countries.pop(); // array length decrease\n\n                // Emit event\n                emit CountryDelete(countryName);\n                return true;\n            }\n        }\n        return false;\n    }\n\n    function getCountry(string memory countryName) public view returns(string memory name, string memory leader, uint256 population) {\n        for (uint256 i = 0; i < totalCountries; i++) {\n            if (compareStrings(countries[i].name, countryName)) {\n                // Emit event\n                return (countries[i].name, countries[i].leader, countries[i].population);\n            }\n        }\n        revert('country not found');\n    }\n\n    function compareStrings(string memory a, string memory b) internal pure returns(bool) {\n        return (keccak256(abi.encodePacked((a))) == keccak256(abi.encodePacked((b))));\n    }\n\n    function getTotalCountries() public view returns(uint256 length) {\n        return countries.length;\n    }\n}",
  "sourcePath": "/Users/itssadon/Code/solidity-crud/contracts/CrudApp.sol",
  "compiler": {
    "name": "solc",
    "version": "0.5.16+commit.9c3226ce.Emscripten.clang"
  },
  "schemaVersion": "3.2.1",
  "updatedAt": "2020-07-07T22:30:42.608Z",
  "devdoc": {
    "methods": {}
  },
  "userdoc": {
    "methods": {}
  }
}